{
  "abi": [
    {
      "type": "constructor",
      "inputs": [
        {
          "name": "newGatewayUrl",
          "type": "string",
          "internalType": "string"
        },
        {
          "name": "newOffChainDatabaseTimeoutDuration",
          "type": "uint256",
          "internalType": "uint256"
        },
        {
          "name": "newSigners",
          "type": "address[]",
          "internalType": "address[]"
        }
      ],
      "stateMutability": "nonpayable"
    },
    {
      "type": "function",
      "name": "addSigners",
      "inputs": [
        {
          "name": "signersToAdd",
          "type": "address[]",
          "internalType": "address[]"
        }
      ],
      "outputs": [],
      "stateMutability": "nonpayable"
    },
    {
      "type": "function",
      "name": "addr",
      "inputs": [
        {
          "name": "node",
          "type": "bytes32",
          "internalType": "bytes32"
        }
      ],
      "outputs": [
        {
          "name": "",
          "type": "address",
          "internalType": "address payable"
        }
      ],
      "stateMutability": "view"
    },
    {
      "type": "function",
      "name": "addr",
      "inputs": [
        {
          "name": "node",
          "type": "bytes32",
          "internalType": "bytes32"
        },
        {
          "name": "coinType",
          "type": "uint256",
          "internalType": "uint256"
        }
      ],
      "outputs": [
        {
          "name": "",
          "type": "bytes",
          "internalType": "bytes"
        }
      ],
      "stateMutability": "view"
    },
    {
      "type": "function",
      "name": "contenthash",
      "inputs": [
        {
          "name": "node",
          "type": "bytes32",
          "internalType": "bytes32"
        }
      ],
      "outputs": [
        {
          "name": "",
          "type": "bytes",
          "internalType": "bytes"
        }
      ],
      "stateMutability": "view"
    },
    {
      "type": "function",
      "name": "gatewayDatabaseTimeoutDuration",
      "inputs": [],
      "outputs": [
        {
          "name": "",
          "type": "uint256",
          "internalType": "uint256"
        }
      ],
      "stateMutability": "view"
    },
    {
      "type": "function",
      "name": "gatewayUrl",
      "inputs": [],
      "outputs": [
        {
          "name": "",
          "type": "string",
          "internalType": "string"
        }
      ],
      "stateMutability": "view"
    },
    {
      "type": "function",
      "name": "isSigner",
      "inputs": [
        {
          "name": "account",
          "type": "address",
          "internalType": "address"
        }
      ],
      "outputs": [
        {
          "name": "",
          "type": "bool",
          "internalType": "bool"
        }
      ],
      "stateMutability": "view"
    },
    {
      "type": "function",
      "name": "name",
      "inputs": [
        {
          "name": "node",
          "type": "bytes32",
          "internalType": "bytes32"
        }
      ],
      "outputs": [
        {
          "name": "",
          "type": "string",
          "internalType": "string"
        }
      ],
      "stateMutability": "view"
    },
    {
      "type": "function",
      "name": "owner",
      "inputs": [],
      "outputs": [
        {
          "name": "",
          "type": "address",
          "internalType": "address"
        }
      ],
      "stateMutability": "view"
    },
    {
      "type": "function",
      "name": "register",
      "inputs": [
        {
          "name": "node",
          "type": "bytes32",
          "internalType": "bytes32"
        },
        {
          "name": "ttl",
          "type": "uint32",
          "internalType": "uint32"
        }
      ],
      "outputs": [],
      "stateMutability": "view"
    },
    {
      "type": "function",
      "name": "removeSigners",
      "inputs": [
        {
          "name": "signersToRemove",
          "type": "address[]",
          "internalType": "address[]"
        }
      ],
      "outputs": [],
      "stateMutability": "nonpayable"
    },
    {
      "type": "function",
      "name": "renounceOwnership",
      "inputs": [],
      "outputs": [],
      "stateMutability": "nonpayable"
    },
    {
      "type": "function",
      "name": "resolve",
      "inputs": [
        {
          "name": "name",
          "type": "bytes",
          "internalType": "bytes"
        },
        {
          "name": "data",
          "type": "bytes",
          "internalType": "bytes"
        }
      ],
      "outputs": [
        {
          "name": "",
          "type": "bytes",
          "internalType": "bytes"
        }
      ],
      "stateMutability": "view"
    },
    {
      "type": "function",
      "name": "resolveWithProof",
      "inputs": [
        {
          "name": "response",
          "type": "bytes",
          "internalType": "bytes"
        },
        {
          "name": "extraData",
          "type": "bytes",
          "internalType": "bytes"
        }
      ],
      "outputs": [
        {
          "name": "",
          "type": "bytes",
          "internalType": "bytes"
        }
      ],
      "stateMutability": "view"
    },
    {
      "type": "function",
      "name": "setAddr",
      "inputs": [
        {
          "name": "node",
          "type": "bytes32",
          "internalType": "bytes32"
        },
        {
          "name": "coinType",
          "type": "uint256",
          "internalType": "uint256"
        },
        {
          "name": "a",
          "type": "bytes",
          "internalType": "bytes"
        }
      ],
      "outputs": [],
      "stateMutability": "nonpayable"
    },
    {
      "type": "function",
      "name": "setAddr",
      "inputs": [
        {
          "name": "node",
          "type": "bytes32",
          "internalType": "bytes32"
        },
        {
          "name": "a",
          "type": "address",
          "internalType": "address"
        }
      ],
      "outputs": [],
      "stateMutability": "nonpayable"
    },
    {
      "type": "function",
      "name": "setContenthash",
      "inputs": [
        {
          "name": "node",
          "type": "bytes32",
          "internalType": "bytes32"
        },
        {
          "name": "hash",
          "type": "bytes",
          "internalType": "bytes"
        }
      ],
      "outputs": [],
      "stateMutability": "nonpayable"
    },
    {
      "type": "function",
      "name": "setGatewayUrl",
      "inputs": [
        {
          "name": "newUrl",
          "type": "string",
          "internalType": "string"
        }
      ],
      "outputs": [],
      "stateMutability": "nonpayable"
    },
    {
      "type": "function",
      "name": "setName",
      "inputs": [
        {
          "name": "node",
          "type": "bytes32",
          "internalType": "bytes32"
        },
        {
          "name": "name",
          "type": "string",
          "internalType": "string"
        }
      ],
      "outputs": [],
      "stateMutability": "nonpayable"
    },
    {
      "type": "function",
      "name": "setOffChainDatabaseTimoutDuration",
      "inputs": [
        {
          "name": "newDuration",
          "type": "uint256",
          "internalType": "uint256"
        }
      ],
      "outputs": [],
      "stateMutability": "nonpayable"
    },
    {
      "type": "function",
      "name": "setText",
      "inputs": [
        {
          "name": "node",
          "type": "bytes32",
          "internalType": "bytes32"
        },
        {
          "name": "key",
          "type": "string",
          "internalType": "string"
        },
        {
          "name": "value",
          "type": "string",
          "internalType": "string"
        }
      ],
      "outputs": [],
      "stateMutability": "nonpayable"
    },
    {
      "type": "function",
      "name": "signers",
      "inputs": [],
      "outputs": [
        {
          "name": "",
          "type": "address[]",
          "internalType": "address[]"
        }
      ],
      "stateMutability": "view"
    },
    {
      "type": "function",
      "name": "supportsInterface",
      "inputs": [
        {
          "name": "interfaceID",
          "type": "bytes4",
          "internalType": "bytes4"
        }
      ],
      "outputs": [
        {
          "name": "",
          "type": "bool",
          "internalType": "bool"
        }
      ],
      "stateMutability": "pure"
    },
    {
      "type": "function",
      "name": "text",
      "inputs": [
        {
          "name": "node",
          "type": "bytes32",
          "internalType": "bytes32"
        },
        {
          "name": "key",
          "type": "string",
          "internalType": "string"
        }
      ],
      "outputs": [
        {
          "name": "",
          "type": "string",
          "internalType": "string"
        }
      ],
      "stateMutability": "view"
    },
    {
      "type": "function",
      "name": "transferOwnership",
      "inputs": [
        {
          "name": "newOwner",
          "type": "address",
          "internalType": "address"
        }
      ],
      "outputs": [],
      "stateMutability": "nonpayable"
    },
    {
      "type": "event",
      "name": "AddrChanged",
      "inputs": [
        {
          "name": "node",
          "type": "bytes32",
          "indexed": true,
          "internalType": "bytes32"
        },
        {
          "name": "a",
          "type": "address",
          "indexed": false,
          "internalType": "address"
        }
      ],
      "anonymous": false
    },
    {
      "type": "event",
      "name": "AddressChanged",
      "inputs": [
        {
          "name": "node",
          "type": "bytes32",
          "indexed": true,
          "internalType": "bytes32"
        },
        {
          "name": "coinType",
          "type": "uint256",
          "indexed": false,
          "internalType": "uint256"
        },
        {
          "name": "newAddress",
          "type": "bytes",
          "indexed": false,
          "internalType": "bytes"
        }
      ],
      "anonymous": false
    },
    {
      "type": "event",
      "name": "ContenthashChanged",
      "inputs": [
        {
          "name": "node",
          "type": "bytes32",
          "indexed": true,
          "internalType": "bytes32"
        },
        {
          "name": "hash",
          "type": "bytes",
          "indexed": false,
          "internalType": "bytes"
        }
      ],
      "anonymous": false
    },
    {
      "type": "event",
      "name": "GatewayUrlSet",
      "inputs": [
        {
          "name": "previousUrl",
          "type": "string",
          "indexed": true,
          "internalType": "string"
        },
        {
          "name": "newUrl",
          "type": "string",
          "indexed": true,
          "internalType": "string"
        }
      ],
      "anonymous": false
    },
    {
      "type": "event",
      "name": "L2HandlerContractAddressChanged",
      "inputs": [
        {
          "name": "chainId",
          "type": "uint256",
          "indexed": true,
          "internalType": "uint256"
        },
        {
          "name": "previousContractAddress",
          "type": "address",
          "indexed": true,
          "internalType": "address"
        },
        {
          "name": "newContractAddress",
          "type": "address",
          "indexed": true,
          "internalType": "address"
        }
      ],
      "anonymous": false
    },
    {
      "type": "event",
      "name": "L2HandlerDefaultChainIdChanged",
      "inputs": [
        {
          "name": "previousChainId",
          "type": "uint256",
          "indexed": true,
          "internalType": "uint256"
        },
        {
          "name": "newChainId",
          "type": "uint256",
          "indexed": true,
          "internalType": "uint256"
        }
      ],
      "anonymous": false
    },
    {
      "type": "event",
      "name": "NameChanged",
      "inputs": [
        {
          "name": "node",
          "type": "bytes32",
          "indexed": true,
          "internalType": "bytes32"
        },
        {
          "name": "name",
          "type": "string",
          "indexed": false,
          "internalType": "string"
        }
      ],
      "anonymous": false
    },
    {
      "type": "event",
      "name": "OffChainDatabaseHandlerURLChanged",
      "inputs": [
        {
          "name": "previousUrl",
          "type": "string",
          "indexed": true,
          "internalType": "string"
        },
        {
          "name": "newUrl",
          "type": "string",
          "indexed": true,
          "internalType": "string"
        }
      ],
      "anonymous": false
    },
    {
      "type": "event",
      "name": "OffChainDatabaseTimeoutDurationSet",
      "inputs": [
        {
          "name": "previousDuration",
          "type": "uint256",
          "indexed": false,
          "internalType": "uint256"
        },
        {
          "name": "newDuration",
          "type": "uint256",
          "indexed": false,
          "internalType": "uint256"
        }
      ],
      "anonymous": false
    },
    {
      "type": "event",
      "name": "OwnershipTransferred",
      "inputs": [
        {
          "name": "previousOwner",
          "type": "address",
          "indexed": true,
          "internalType": "address"
        },
        {
          "name": "newOwner",
          "type": "address",
          "indexed": true,
          "internalType": "address"
        }
      ],
      "anonymous": false
    },
    {
      "type": "event",
      "name": "SignerAdded",
      "inputs": [
        {
          "name": "addedSigner",
          "type": "address",
          "indexed": true,
          "internalType": "address"
        }
      ],
      "anonymous": false
    },
    {
      "type": "event",
      "name": "SignerRemoved",
      "inputs": [
        {
          "name": "removedSigner",
          "type": "address",
          "indexed": true,
          "internalType": "address"
        }
      ],
      "anonymous": false
    },
    {
      "type": "event",
      "name": "TextChanged",
      "inputs": [
        {
          "name": "node",
          "type": "bytes32",
          "indexed": true,
          "internalType": "bytes32"
        },
        {
          "name": "indexedKey",
          "type": "string",
          "indexed": true,
          "internalType": "string"
        },
        {
          "name": "key",
          "type": "string",
          "indexed": false,
          "internalType": "string"
        },
        {
          "name": "value",
          "type": "string",
          "indexed": false,
          "internalType": "string"
        }
      ],
      "anonymous": false
    },
    {
      "type": "error",
      "name": "OffchainLookup",
      "inputs": [
        {
          "name": "sender",
          "type": "address",
          "internalType": "address"
        },
        {
          "name": "urls",
          "type": "string[]",
          "internalType": "string[]"
        },
        {
          "name": "callData",
          "type": "bytes",
          "internalType": "bytes"
        },
        {
          "name": "callbackFunction",
          "type": "bytes4",
          "internalType": "bytes4"
        },
        {
          "name": "extraData",
          "type": "bytes",
          "internalType": "bytes"
        }
      ]
    },
    {
      "type": "error",
      "name": "SignatureVerifier__InvalidSignature",
      "inputs": [
        {
          "name": "cause",
          "type": "string",
          "internalType": "string"
        }
      ]
    },
    {
      "type": "error",
      "name": "StorageHandledByL2",
      "inputs": [
        {
          "name": "chainId",
          "type": "uint256",
          "internalType": "uint256"
        },
        {
          "name": "contractAddress",
          "type": "address",
          "internalType": "address"
        }
      ]
    },
    {
      "type": "error",
      "name": "StorageHandledByOffChainDatabase",
      "inputs": [
        {
          "name": "sender",
          "type": "tuple",
          "internalType": "struct IWriteDeferral.domainData",
          "components": [
            {
              "name": "name",
              "type": "string",
              "internalType": "string"
            },
            {
              "name": "version",
              "type": "string",
              "internalType": "string"
            },
            {
              "name": "chainId",
              "type": "uint64",
              "internalType": "uint64"
            },
            {
              "name": "verifyingContract",
              "type": "address",
              "internalType": "address"
            }
          ]
        },
        {
          "name": "url",
          "type": "string",
          "internalType": "string"
        },
        {
          "name": "data",
          "type": "tuple",
          "internalType": "struct IWriteDeferral.messageData",
          "components": [
            {
              "name": "functionSelector",
              "type": "bytes4",
              "internalType": "bytes4"
            },
            {
              "name": "sender",
              "type": "address",
              "internalType": "address"
            },
            {
              "name": "parameters",
              "type": "tuple[]",
              "internalType": "struct IWriteDeferral.parameter[]",
              "components": [
                {
                  "name": "name",
                  "type": "string",
                  "internalType": "string"
                },
                {
                  "name": "value",
                  "type": "string",
                  "internalType": "string"
                }
              ]
            },
            {
              "name": "expirationTimestamp",
              "type": "uint256",
              "internalType": "uint256"
            }
          ]
        }
      ]
    }
  ],
  "bytecode": {
    "object": "0x60806040818152346200042057620026d080380380916200002182866200043b565b84398201606083820312620004205782516001600160401b0391908281116200042057840193601f92828487011215620004205785516020918082116200042557601f19978751926200007b858b8a84011601856200043b565b8084528685828401011162000420576200009b918580860191016200045f565b82840151938781015190828211620004205701858782011215620004205780519582871162000425576005918760051b908a5198620000dd8884018b6200043b565b895286808a019282010192831162000420578601905b828210620003ff57505060008054336001600160a01b0319821681178355919892506001600160a01b03919082167f8be0079c531659141344cd1fd0a4f28419497f9722a3daafe3b4186f6b6457e08a80a3815191885b838110620003905750505050508651908596600197885490846200016e8362000484565b80825291838c1689811562000371575060011462000330575b62000195925003856200043b565b84519283116200031c57620001aa9062000484565b818111620002d8575b5088998799989950859183116001146200025a575091600080516020620026b0833981519152988262000205936200020c958a916200024e575b50600019600383901b1c191690821b179055620004c1565b91620004c1565b907f89e3f76277bf08e4371bcc677d04c7d3ab8fcef918f05d5e9668c532f3bd120786519580a3600254826002558352820152a15161212c9081620005848239f35b905086015138620001ed565b898852858820999291908216885b818110620002bf57509282600080516020620026b08339815191529b82936200020c9795620002059710620002a5575b5050811b019055620004c1565b88015160001960f88460031b161c19169055388062000298565b828701518c559a84019a8c9a5091870191870162000268565b8888528588208280850160051c82019288861062000312575b0160051c01905b818110620003075750620001b3565b8881558901620002f8565b92508192620002f1565b634e487b7160e01b88526041600452602488fd5b50508989528487808b208c8c915b8583106200035757505062000195935082010162000187565b80919294505483858b01015201910188908c88936200033e565b915050620001959260ff19851682840152151560051b82010162000187565b8151811015620003eb57808389600193881b8501015116620003b281620004e3565b620003c0575b50016200014a565b7f47d1c22a25bb3a5d4e481b9b1e6944c2eade3181a0a20b495ed61d35b5323f248c80a238620003b8565b634e487b7160e01b8a52603260045260248afd5b81516001600160a01b038116810362000420578152908601908601620000f3565b600080fd5b634e487b7160e01b600052604160045260246000fd5b601f909101601f19168101906001600160401b038211908210176200042557604052565b60005b838110620004735750506000910152565b818101518382015260200162000462565b90600182811c92168015620004b6575b6020831014620004a057565b634e487b7160e01b600052602260045260246000fd5b91607f169162000494565b620004db906020604051928284809451938492016200045f565b810103902090565b6000818152600460205260408120546200057e57600354680100000000000000008110156200056a57600181018060035581101562000556577fc2575a0e9e593c00f959f8c92f12db2869c3395a3b0502d05e2516446f71f85b0182905560035491815260046020526040902055600190565b634e487b7160e01b82526032600452602482fd5b634e487b7160e01b82526041600452602482fd5b90509056fe6080604052600436101561001257600080fd5b60003560e01c806301ffc9a71461019d57806310f13a8c146101985780631787080e1461019357806327a5f3af1461018e578063304e6ade146101895780633b3b57de1461014857806346f0975a1461018457806359d1d43c1461017f578063691f343114610148578063715018a61461017a57806377372213146101755780637df73e27146101705780638b95dd711461016b5780638bf165d9146101665780638c92c8c3146101615780638d361e431461015c5780638da5cb5b146101575780639061b92314610152578063b2c20f4e1461014d578063bc1c58d114610148578063d5fa2b0014610143578063e8906a2d1461013e578063f1cb7e0614610139578063f2fde38b146101345763f4d4d2f81461012f57600080fd5b6110ae565b610fe7565b610fd0565b610f02565b610e90565b61065d565b610e19565b610d74565b610cf4565b610c78565b610c0e565b610bcf565b6109a0565b610875565b6107ee565b610793565b61077d565b610674565b6105b9565b610532565b6103c0565b6102d2565b346102a05760203660031901126102a05760043563ffffffff60e01b81168091036102a05761021c90639061b92360e01b811490811561028f575b811561027e575b811561026d575b811561025c575b811561024b575b811561023a575b8115610229575b8115610220575b5060405190151581529081906020820190565b0390f35b90501538610209565b6378e5bf0360e11b81149150610202565b63bc1c58d160e01b811491506101fb565b63691f343160e01b811491506101f4565b631674750f60e21b811491506101ed565b63c869023360e01b811491506101e6565b631101d5ab60e11b811491506101df565b631d9dabef60e11b811491506101d8565b600080fd5b9181601f840112156102a0578235916001600160401b0383116102a057602083818601950101116102a057565b346102a05760603660031901126102a0576001600160401b036024358181116102a0576103039036906004016102a5565b916044359081116102a05761031c9036906004016102a5565b919061032661124b565b938451156103bb576103936103b4936020870151610342611349565b905261035c61034f6114b4565b600435602082015261184c565b602061036789611308565b51015261037387611315565b5161037c611369565b9052602061038988611315565b510192369161094b565b905261039e84611325565b516103a7611388565b9052602061038985611325565b9052611656565b6112f2565b346102a0576020806003193601126102a0576001600160401b036004358181116102a0576103f56104049136906004016102a5565b6103fd611706565b369161094b565b916040519161041d8361041681610a97565b0384610900565b835190811161052d5760019161043c826104378554610a5d565b61175e565b602090601f83116001146104b557509161047582610482959361047c956000916104aa575b508160011b916000199060031b1c19161790565b90556117d9565b916117d9565b907f89e3f76277bf08e4371bcc677d04c7d3ab8fcef918f05d5e9668c532f3bd1207600080a3005b905087015138610461565b600160005290601f1983166000805160206120d7833981519152926000905b82821061051657505092849261047c9592826104829896106104fd575b5050811b0190556117d9565b88015160001960f88460031b161c1916905538806104f1565b808785968294968c015181550195019301906104d4565b6108b4565b346102a05760203660031901126102a0577f96c6caf9f42ebbbb9ba734bc86cf4885bd740fa956cdc9e642cafdb29d1b0e9b6040600435610571611706565b600254908060025582519182526020820152a1005b9060406003198301126102a05760043591602435906001600160401b0382116102a0576105b5916004016102a5565b9091565b346102a0576105c736610586565b90916105d1611297565b928351156103bb57610600602085019283516105eb611349565b90526105f56114b4565b90602082015261184c565b928451156103bb5761064a9360206106459451015261061e85611315565b516040519061062c826108ca565b60048252630d0c2e6d60e31b602083015252369161094b565b61184c565b602061065583611315565b510152611656565b346102a0576020366003190112156113a957600080fd5b346102a0576000806003193601126107325760405180916003549081835260208093018092600383527fc2575a0e9e593c00f959f8c92f12db2869c3395a3b0502d05e2516446f71f85b90835b81811061071e57505050846106d7910385610900565b60405193838594850191818652518092526040850193925b8281106106fe57505050500390f35b83516001600160a01b0316855286955093810193928101926001016106ef565b8254845292860192600192830192016106c1565b80fd5b60005b8381106107485750506000910152565b8181015183820152602001610738565b9060209161077181518092818552858086019101610735565b601f01601f1916010190565b346102a05761078b36610586565b5050506113a9565b346102a057600080600319360112610732576107ad611706565b80546001600160a01b03198116825581906001600160a01b03167f8be0079c531659141344cd1fd0a4f28419497f9722a3daafe3b4186f6b6457e08280a380f35b346102a0576107fc36610586565b9091610806611297565b928351156103bb57610820602085019283516105eb611349565b8451156103bb5760206103b49351015261083984611315565b5160405190610847826108ca565b60048252636e616d6560e01b602083015252602061038985611315565b6001600160a01b038116036102a057565b346102a05760203660031901126102a05760043561089281610864565b60018060a01b0316600052600460205260206040600020541515604051908152f35b634e487b7160e01b600052604160045260246000fd5b604081019081106001600160401b0382111761052d57604052565b608081019081106001600160401b0382111761052d57604052565b90601f801991011681019081106001600160401b0382111761052d57604052565b6040519061092e826108e5565b565b6001600160401b03811161052d57601f01601f191660200190565b92919261095782610930565b916109656040519384610900565b8294818452818301116102a0578281602093846000960137010152565b9080601f830112156102a05781602061099d9335910161094b565b90565b346102a05760603660031901126102a0576044356001600160401b0381116102a0576109d0903690600401610982565b6109d861124b565b908151156103bb57610a529060208301516109f1611349565b90526109fe61034f6114b4565b6020610a0985611308565b510152610a1583611315565b51610a1e611429565b9052610a2b602435611ad6565b6020610a3685611315565b510152610a4283611325565b51610a4b61144e565b905261184c565b602061065583611325565b90600182811c92168015610a8d575b6020831014610a7757565b634e487b7160e01b600052602260045260246000fd5b91607f1691610a6c565b90600091600190600154610aaa81610a5d565b8083529260209160018116908115610b155750600114610acb575b50505050565b9293945060016000526000805160206120d7833981519152926000935b858510610b02575050506020925001019038808080610ac5565b8054858501840152938201938101610ae8565b92505050602093945060ff929192191683830152151560051b01019038808080610ac5565b90600091600190600154610b4d81610a5d565b8083529260209160018116908115610b155750600114610b6d5750505050565b9293945060016000526000805160206120d7833981519152926000935b858510610ba4575050506020925001019038808080610ac5565b8054858501840152938201938101610b8a565b6040519061092e82610bc881610b3a565b0383610900565b346102a05760003660031901126102a05761021c604051610bfa81610bf381610a97565b0382610900565b604051918291602083526020830190610758565b346102a05760003660031901126102a0576020600254604051908152f35b9060206003198301126102a0576004356001600160401b03928382116102a057806023830112156102a05781600401359384116102a05760248460051b830101116102a0576024019190565b346102a057610c8636610c2c565b610c8e611706565b60005b818110610c9a57005b8060019160051b840135610cad81610864565b828060a01b0316610cbd81611d04565b610cc9575b5001610c91565b7f3525e22824a8a7df2c9a6029941c824cf95b6447f1e13d5128fd3826d35afe8b600080a238610cc2565b346102a05760003660031901126102a0576000546040516001600160a01b039091168152602090f35b60406003198201126102a0576001600160401b03916004358381116102a05782610d49916004016102a5565b939093926024359182116102a0576105b5916004016102a5565b90602061099d928181520190610758565b346102a057610d8236610d1d565b92509050604051610d92816108ca565b6001815260005b602080821015610db457906060602092828501015201610d99565b5050610e1583610dc2610bb7565b610dcb84611308565b52610dd583611308565b5060405190610dfb82610ded3084896020850161198e565b03601f198101845283610900565b604051630556f18360e41b815294859430600487016119a7565b0390fd5b346102a05760403660031901126102a05760243563ffffffff81168091036102a057610e43611297565b908151156103bb5760208201908151610e5a611349565b9052610e6761034f6114b4565b8351156103bb57602061064a93510152610e8083611315565b51610e89611471565b9052611ad6565b346102a05760403660031901126102a057602435610ead81610864565b610eb5611297565b908151156103bb5760208201908151610ecc611349565b9052610ed961034f6114b4565b8351156103bb57602061064a93510152610ef283611315565b51610efb61144e565b9052611c1a565b346102a057610f1036610c2c565b90610f19611706565b610f2282611234565b90610f306040519283610900565b828252602092602083019060051b8201913683116102a057905b828210610fb75783805160005b818110610f6057005b6001906001600160a01b03610f758286611335565b5116610f8081611e64565b610f8c575b5001610f57565b7f47d1c22a25bb3a5d4e481b9b1e6944c2eade3181a0a20b495ed61d35b5323f24600080a284610f85565b8480918335610fc581610864565b815201910190610f4a565b346102a0576040366003190112156113a957600080fd5b346102a05760203660031901126102a05760043561100481610864565b61100c611706565b6001600160a01b03908116801561105a57600080546001600160a01b03198116831782559092167f8be0079c531659141344cd1fd0a4f28419497f9722a3daafe3b4186f6b6457e08380a380f35b60405162461bcd60e51b815260206004820152602660248201527f4f776e61626c653a206e6577206f776e657220697320746865207a65726f206160448201526564647265737360d01b6064820152608490fd5b346102a0576110bc36610d1d565b92918201926060838503126102a0576001600160401b039280358481116102a057856110e9918301610982565b946020820135858116958682036102a05760408401359081116102a05761113c9561111d8994611126936111379701610982565b95810190611c3b565b9091906001600160a01b0316611db6565b611e4f565b9042116111fa57604051637df73e2760e01b81526001600160a01b03919091166004820152602081602481305afa9081156111f5576000916111c6575b501561118f5761021c9060405191829182610d63565b604051636ee8a75560e01b815260206004820152600e60248201526d34b73b30b634b21039b4b3b732b960911b6044820152606490fd5b6111e8915060203d6020116111ee575b6111e08183610900565b810190611490565b38611179565b503d6111d6565b6114a8565b604051636ee8a75560e01b81526020600482015260116024820152701cda59db985d1d5c9948195e1c1a5c9959607a1b6044820152606490fd5b6001600160401b03811161052d5760051b60200190565b60409060405161125a816108e5565b60038152809160005b60608082101561128f5785516020929161127c826108ca565b8082528382015284820183015201611263565b505091925050565b60409060405191606092606081018181106001600160401b0382111761052d5760405260028152809360005b8381106112d05750505050565b60209084516112de816108ca565b8381528284818301528286010152016112c3565b634e487b7160e01b600052603260045260246000fd5b8051156103bb5760200190565b8051600110156103bb5760400190565b8051600210156103bb5760600190565b80518210156103bb5760209160051b010190565b60405190611356826108ca565b60048252636e6f646560e01b6020830152565b60405190611376826108ca565b60038252626b657960e81b6020830152565b60405190611395826108ca565b600582526476616c756560d81b6020830152565b6040516113b5816108ca565b6001815260005b602090818110156113d75760606020928285010152016113bc565b826113e0610bb7565b6113e982611308565b526113f381611308565b506040519061140a82610ded303660208401611966565b610e15604051928392630556f18360e41b845236903060048601611a4d565b60405190611436826108ca565b6009825268636f696e5f7479706560b81b6020830152565b6040519061145b826108ca565b60078252666164647265737360c81b6020830152565b6040519061147e826108ca565b60038252621d1d1b60ea1b6020830152565b908160209103126102a0575180151581036102a05790565b6040513d6000823e3d90fd5b604051906114c1826108ca565b60208083523683820137565b906114d782610930565b6114e46040519182610900565b82815280926114f5601f1991610930565b0190602036910137565b634e487b7160e01b600052601160045260246000fd5b906001820180921161152357565b6114ff565b9190820180921161152357565b90916060825261155183516080606085015260e0840190610758565b9261156d60209485830151605f19868303016080870152610758565b6040828101516001600160401b031660a08601526060909201516001600160a01b0390811660c086015284820386860152906115a890610b3a565b9382818603910152608084019063ffffffff60e01b84511685528584015116858501528183015194608083860152855180925260a08501928160a08460051b8801019701936000915b84831061160a5750505050505060608091015191015290565b9091929394978480611646600193609f198c82030187528c519083611636835189845289840190610758565b9201519084818403910152610758565b9a019301930191949392906115f1565b604051611662816108ca565b601081526f2230ba30b130b9b2a932b9b7b63b32b960811b602082015260405161168b816108ca565b60018152603160f81b60208201526116a1610921565b9182526020820152600160408201523060608201526116c260025442611528565b6116ca610921565b6000356001600160e01b03191681529233602085015260408401526060830152610e15604051928392634bd55edd60e01b845260048401611535565b6000546001600160a01b0316330361171a57565b606460405162461bcd60e51b815260206004820152602060248201527f4f776e61626c653a2063616c6c6572206973206e6f7420746865206f776e65726044820152fd5b90601f821161176b575050565b60019160009060016000526000805160206120d7833981519152906020601f850160051c830194106117b8575b601f0160051c01915b8281106117ae5750505050565b81815583016117a1565b9092508290611798565b906117d560209282815194859201610735565b0190565b6117f190602060405192828480945193849201610735565b810103902090565b60405190611806826108ca565b601082526f181899199a1a9b1b9c1cb0b131b232b360811b6020830152565b9081518110156103bb570160200190565b908160011b918083046002149015171561152357565b906118556117f9565b611868611863845160011b90565b6114cd565b9060009360005b81518110156118ed57806118c861189c6001809486010151600f906118aa61189c838360041c168a611825565b516001600160f81b03191690565b6118c06118b687611836565b918d1a918b611825565b531686611825565b6118e66118dc6118d784611836565b611515565b91891a9187611825565b530161186f565b505060405161060f60f31b602082015292935061099d918391506119159060228301906117c2565b03601f198101835282610900565b90602091808252806000848401376000828201840152601f01601f1916010190565b908060209392818452848401376000828201840152601f01601f1916010190565b9061197e602091949394604084526040840190611923565b6001600160a01b03909416910152565b9160209161197e91959495604085526040850191611945565b93919594929060a085019060018060a01b0316855260209060a06020870152875180915260c0860191602060c08360051b8901019901926000905b838210611a2057505050505094611a059161099d95968583036040870152611945565b631e9a9a5f60e31b6060840152916080818403910152610758565b90919293998380611a3e6001938e8d60bf1990830301875251610758565b9c0192019201909392916119e2565b92909493919460a084019060018060a01b0316845260209060a06020860152865180915260c0850191602060c08360051b8801019801926000905b838210611aaa57505050505084611a05918461099d9697036040860152611923565b90919293988380611ac760019360bf198c82030186528d51610758565b9b019201920190939291611a88565b806000917a184f03e93ff9f4daa797ed6e38ed64bf6a1f01000000000000000080821015611c0c575b506d04ee2d6d415b85acef810000000080831015611bfd575b50662386f26fc1000080831015611bee575b506305f5e10080831015611bdf575b5061271080831015611bd0575b506064821015611bc0575b600a80921015611bb6575b600190816021611b6e600187016114cd565b95860101905b611b80575b5050505090565b600019019083906f181899199a1a9b1b9c1cb0b131b232b360811b8282061a835304918215611bb157919082611b74565b611b79565b9160010191611b5c565b9190606460029104910191611b51565b60049193920491019138611b46565b60089193920491019138611b39565b60109193920491019138611b2a565b60209193920491019138611b18565b604093508104915038611aff565b60405161099d91611c2a826108ca565b6014825260601b602082015261184c565b91906040838203126102a05782356001600160401b0381116102a057602091611c65918501610982565b92013561099d81610864565b6003548110156103bb5760036000527fc2575a0e9e593c00f959f8c92f12db2869c3395a3b0502d05e2516446f71f85b0190600090565b6003548015611cee57600019810190808210156103bb577fc2575a0e9e593c00f959f8c92f12db2869c3395a3b0502d05e2516446f71f85a600091600383520155600355565b634e487b7160e01b600052603160045260246000fd5b6000818152600460205260409020548015611daf57600019918183019180831161152357600354938401938411611523578383611d5f9460009603611d65575b505050611d4f611ca8565b6000526004602052604060002090565b55600190565b611d4f611d8d91611d85611d7b611da695611c71565b90549060031b1c90565b928391611c71565b90919082549060031b91821b91600019901b1916179055565b55388080611d44565b5050600090565b92909160208151910120906020815191012090604051926020840194601960f81b86526bffffffffffffffffffffffff199060601b1660228501526001600160401b0360c01b9060c01b166036840152603e830152605e820152605e8152611e1d816108e5565b5190207f19457468657265756d205369676e6564204d6573736167653a0a333200000000600052601c52603c60002090565b61099d91611e5c91611ee0565b919091611f34565b80600052600460205260406000205415600014611eda576003546801000000000000000081101561052d5760018101806003558110156103bb5781907fc2575a0e9e593c00f959f8c92f12db2869c3395a3b0502d05e2516446f71f85b0155600354906000526004602052604060002055600190565b50600090565b906041815114600014611f0a576105b5916020820151906060604084015193015160001a90612054565b5050600090600290565b60051115611f1e57565b634e487b7160e01b600052602160045260246000fd5b611f3d81611f14565b80611f455750565b611f4e81611f14565b60018103611f9b5760405162461bcd60e51b815260206004820152601860248201527f45434453413a20696e76616c6964207369676e617475726500000000000000006044820152606490fd5b611fa481611f14565b60028103611ff15760405162461bcd60e51b815260206004820152601f60248201527f45434453413a20696e76616c6964207369676e6174757265206c656e677468006044820152606490fd5b80611ffd600392611f14565b1461200457565b60405162461bcd60e51b815260206004820152602260248201527f45434453413a20696e76616c6964207369676e6174757265202773272076616c604482015261756560f01b6064820152608490fd5b9291907f7fffffffffffffffffffffffffffffff5d576e7357a4501ddfe92f46681b20a083116120ca5791608094939160ff602094604051948552168484015260408301526060820152600093849182805260015afa156111f55781516001600160a01b038116156120c4579190565b50600190565b5050505060009060039056feb10e2d527612073b26eecdfd717e6a320cf44b4afac2b0732d9fcbe2b7fa0cf6a264697066735822122034ed98507cbb54da25bec441826ae8bc1f83c61dff17f7623ce15bc955c3a6b864736f6c6343000818003396c6caf9f42ebbbb9ba734bc86cf4885bd740fa956cdc9e642cafdb29d1b0e9b",
    "linkReferences": {}
  },
  "methodIdentifiers": {
    "addSigners(address[])": "e8906a2d",
    "addr(bytes32)": "3b3b57de",
    "addr(bytes32,uint256)": "f1cb7e06",
    "contenthash(bytes32)": "bc1c58d1",
    "gatewayDatabaseTimeoutDuration()": "8c92c8c3",
    "gatewayUrl()": "8bf165d9",
    "isSigner(address)": "7df73e27",
    "name(bytes32)": "691f3431",
    "owner()": "8da5cb5b",
    "register(bytes32,uint32)": "b2c20f4e",
    "removeSigners(address[])": "8d361e43",
    "renounceOwnership()": "715018a6",
    "resolve(bytes,bytes)": "9061b923",
    "resolveWithProof(bytes,bytes)": "f4d4d2f8",
    "setAddr(bytes32,address)": "d5fa2b00",
    "setAddr(bytes32,uint256,bytes)": "8b95dd71",
    "setContenthash(bytes32,bytes)": "304e6ade",
    "setGatewayUrl(string)": "1787080e",
    "setName(bytes32,string)": "77372213",
    "setOffChainDatabaseTimoutDuration(uint256)": "27a5f3af",
    "setText(bytes32,string,string)": "10f13a8c",
    "signers()": "46f0975a",
    "supportsInterface(bytes4)": "01ffc9a7",
    "text(bytes32,string)": "59d1d43c",
    "transferOwnership(address)": "f2fde38b"
  },
  "id": 150
}