{"abi":[{"type":"constructor","inputs":[{"name":"_registry","type":"address","internalType":"address"},{"name":"_urls","type":"string[]","internalType":"string[]"}],"stateMutability":"nonpayable"},{"type":"function","name":"_resolveSingle","inputs":[{"name":"name","type":"bytes","internalType":"bytes"},{"name":"data","type":"bytes","internalType":"bytes"},{"name":"gateways","type":"string[]","internalType":"string[]"},{"name":"callbackFunction","type":"bytes4","internalType":"bytes4"},{"name":"metaData","type":"bytes","internalType":"bytes"}],"outputs":[{"name":"","type":"bytes","internalType":"bytes"},{"name":"","type":"address","internalType":"address"}],"stateMutability":"view"},{"type":"function","name":"batchGatewayURLs","inputs":[{"name":"","type":"uint256","internalType":"uint256"}],"outputs":[{"name":"","type":"string","internalType":"string"}],"stateMutability":"view"},{"type":"function","name":"findResolver","inputs":[{"name":"name","type":"bytes","internalType":"bytes"}],"outputs":[{"name":"","type":"address","internalType":"contract Resolver"},{"name":"","type":"bytes32","internalType":"bytes32"},{"name":"","type":"uint256","internalType":"uint256"}],"stateMutability":"view"},{"type":"function","name":"owner","inputs":[],"outputs":[{"name":"","type":"address","internalType":"address"}],"stateMutability":"view"},{"type":"function","name":"registry","inputs":[],"outputs":[{"name":"","type":"address","internalType":"contract ENS"}],"stateMutability":"view"},{"type":"function","name":"renounceOwnership","inputs":[],"outputs":[],"stateMutability":"nonpayable"},{"type":"function","name":"resolve","inputs":[{"name":"name","type":"bytes","internalType":"bytes"},{"name":"data","type":"bytes","internalType":"bytes"},{"name":"gateways","type":"string[]","internalType":"string[]"}],"outputs":[{"name":"","type":"bytes","internalType":"bytes"},{"name":"","type":"address","internalType":"address"}],"stateMutability":"view"},{"type":"function","name":"resolve","inputs":[{"name":"name","type":"bytes","internalType":"bytes"},{"name":"data","type":"bytes[]","internalType":"bytes[]"}],"outputs":[{"name":"","type":"tuple[]","internalType":"struct Result[]","components":[{"name":"success","type":"bool","internalType":"bool"},{"name":"returnData","type":"bytes","internalType":"bytes"}]},{"name":"","type":"address","internalType":"address"}],"stateMutability":"view"},{"type":"function","name":"resolve","inputs":[{"name":"name","type":"bytes","internalType":"bytes"},{"name":"data","type":"bytes[]","internalType":"bytes[]"},{"name":"gateways","type":"string[]","internalType":"string[]"}],"outputs":[{"name":"","type":"tuple[]","internalType":"struct Result[]","components":[{"name":"success","type":"bool","internalType":"bool"},{"name":"returnData","type":"bytes","internalType":"bytes"}]},{"name":"","type":"address","internalType":"address"}],"stateMutability":"view"},{"type":"function","name":"resolve","inputs":[{"name":"name","type":"bytes","internalType":"bytes"},{"name":"data","type":"bytes","internalType":"bytes"}],"outputs":[{"name":"","type":"bytes","internalType":"bytes"},{"name":"","type":"address","internalType":"address"}],"stateMutability":"view"},{"type":"function","name":"resolveCallback","inputs":[{"name":"response","type":"bytes","internalType":"bytes"},{"name":"extraData","type":"bytes","internalType":"bytes"}],"outputs":[{"name":"","type":"tuple[]","internalType":"struct Result[]","components":[{"name":"success","type":"bool","internalType":"bool"},{"name":"returnData","type":"bytes","internalType":"bytes"}]},{"name":"","type":"address","internalType":"address"}],"stateMutability":"view"},{"type":"function","name":"resolveSingleCallback","inputs":[{"name":"response","type":"bytes","internalType":"bytes"},{"name":"extraData","type":"bytes","internalType":"bytes"}],"outputs":[{"name":"","type":"bytes","internalType":"bytes"},{"name":"","type":"address","internalType":"address"}],"stateMutability":"view"},{"type":"function","name":"reverse","inputs":[{"name":"reverseName","type":"bytes","internalType":"bytes"},{"name":"gateways","type":"string[]","internalType":"string[]"}],"outputs":[{"name":"","type":"string","internalType":"string"},{"name":"","type":"address","internalType":"address"},{"name":"","type":"address","internalType":"address"},{"name":"","type":"address","internalType":"address"}],"stateMutability":"view"},{"type":"function","name":"reverse","inputs":[{"name":"reverseName","type":"bytes","internalType":"bytes"}],"outputs":[{"name":"","type":"string","internalType":"string"},{"name":"","type":"address","internalType":"address"},{"name":"","type":"address","internalType":"address"},{"name":"","type":"address","internalType":"address"}],"stateMutability":"view"},{"type":"function","name":"reverseCallback","inputs":[{"name":"response","type":"bytes","internalType":"bytes"},{"name":"extraData","type":"bytes","internalType":"bytes"}],"outputs":[{"name":"","type":"string","internalType":"string"},{"name":"","type":"address","internalType":"address"},{"name":"","type":"address","internalType":"address"},{"name":"","type":"address","internalType":"address"}],"stateMutability":"view"},{"type":"function","name":"setGatewayURLs","inputs":[{"name":"_urls","type":"string[]","internalType":"string[]"}],"outputs":[],"stateMutability":"nonpayable"},{"type":"function","name":"supportsInterface","inputs":[{"name":"interfaceId","type":"bytes4","internalType":"bytes4"}],"outputs":[{"name":"","type":"bool","internalType":"bool"}],"stateMutability":"view"},{"type":"function","name":"transferOwnership","inputs":[{"name":"newOwner","type":"address","internalType":"address"}],"outputs":[],"stateMutability":"nonpayable"},{"type":"event","name":"OwnershipTransferred","inputs":[{"name":"previousOwner","type":"address","indexed":true,"internalType":"address"},{"name":"newOwner","type":"address","indexed":true,"internalType":"address"}],"anonymous":false},{"type":"error","name":"HttpError","inputs":[{"name":"errors","type":"tuple[]","internalType":"struct HttpErrorItem[]","components":[{"name":"status","type":"uint16","internalType":"uint16"},{"name":"message","type":"string","internalType":"string"}]}]},{"type":"error","name":"OffchainLookup","inputs":[{"name":"sender","type":"address","internalType":"address"},{"name":"urls","type":"string[]","internalType":"string[]"},{"name":"callData","type":"bytes","internalType":"bytes"},{"name":"callbackFunction","type":"bytes4","internalType":"bytes4"},{"name":"extraData","type":"bytes","internalType":"bytes"}]},{"type":"error","name":"ResolverError","inputs":[{"name":"returnData","type":"bytes","internalType":"bytes"}]},{"type":"error","name":"ResolverNotContract","inputs":[]},{"type":"error","name":"ResolverNotFound","inputs":[]},{"type":"error","name":"ResolverWildcardNotSupported","inputs":[]}],"bytecode":{"object":"0x604060a060405234620003945762003435803803806200001f81620003c4565b928339810190604081830312620003945780516001600160a01b0393908481169081900362000394576020838101516001600160401b0394919291858211620003945701601f918683830112156200039457815191868311620003ae576005958360051b988662000092818c01620003c4565b80968152019087829b850101938185116200039457888101925b8584106200030b575050505050506000978854903360018060a01b03198316178a553391167f8be0079c531659141344cd1fd0a4f28419497f9722a3daafe3b4186f6b6457e08a80a36080525193680100000000000000008511620002f75760019586548688558087106200027f575b5093918688528388209288955b8787106200015157604051612ff490816200044182396080518181816107af015261200e0152f35b80519081518581116200026b578a9188918d6200016f8a54620003ea565b8489821162000232575b5050508d8390888311600114620001c15790859683620001b5575b5050600019600383901b1c191690841b1788555b0195019601959362000129565b01519050388062000194565b90601f1983168b8352858320925b8181106200020f5750908697848895949310620001f5575b505050811b018855620001a8565b015160001960f88460031b161c19169055388080620001e7565b9497939686929691938786015181550195019301928b94918f96939794620001cf565b828c62000258945220898085018a1c82019287861062000261575b01891c019062000427565b8d388462000179565b925081926200024d565b634e487b7160e01b8c52604160045260248cfd5b8789528787868b2092830192015b8281106200029d5750506200011c565b8a620002aa8254620003ea565b80620002bc575b50500188906200028d565b878111600114620002d3575081555b8a38620002b1565b828252620002ed888a842092018b1c820185830162000427565b81835555620002cb565b634e487b7160e01b87526041600452602487fd5b83518c81116200039457820183603f8201121562000394578a8101518d8111620003995762000342818c01601f19168d01620003c4565b918183528588838301011162000394579290918c926000945b8186106200037b57508380955060009183010152815201930192620000ac565b8086018a015183870186015293909401938d936200035b565b600080fd5b60246000634e487b7160e01b81526041600452fd5b634e487b7160e01b600052604160045260246000fd5b6040519190601f01601f191682016001600160401b03811183821017620003ae57604052565b90600182811c921680156200041c575b60208310146200040657565b634e487b7160e01b600052602260045260246000fd5b91607f1691620003fa565b81811062000433575050565b600081556001016200042756fe6080604052600436101561001257600080fd5b60003560e01c806301ffc9a7146101375780630667cfea14610132578063206c74c91461012d5780636dc4fb7314610128578063715018a61461012357806376286c001461011e5780637b103999146101195780638da5cb5b146101145780638e25a0f31461010f5780638e5ea8df1461010a5780639061b92314610105578063a1cbcbaf14610100578063a6b16419146100fb578063b241d0d3146100f6578063b4a85801146100f1578063e0a85412146100ec578063ec11c823146100e75763f2fde38b146100e257600080fd5b610f7d565b610f50565b610e38565b610c2b565b610bd3565b610b80565b610a46565b6109c8565b610897565b610807565b6107de565b610799565b610734565b6106d6565b6106a9565b6105bb565b610429565b610153565b6001600160e01b031981160361014e57565b600080fd5b3461014e57602036600319011261014e5760206004356101728161013c565b63ffffffff60e01b16639061b92360e01b8114908115610198575b506040519015158152f35b6301ffc9a760e01b1490503861018d565b9181601f8401121561014e578235916001600160401b03831161014e576020838186019501011161014e57565b634e487b7160e01b600052604160045260246000fd5b604081019081106001600160401b0382111761020757604052565b6101d6565b606081019081106001600160401b0382111761020757604052565b602081019081106001600160401b0382111761020757604052565b90601f801991011681019081106001600160401b0382111761020757604052565b6040519061010082018281106001600160401b0382111761020757604052565b60405190610290826101ec565b565b604051906102908261020c565b6001600160401b03811161020757601f01601f191660200190565b9291926102c68261029f565b916102d46040519384610242565b82948184528183011161014e578281602093846000960137010152565b9080601f8301121561014e5781602061030c933591016102ba565b90565b6001600160401b0381116102075760051b60200190565b9080601f8301121561014e578135916020916103418461030f565b9360406103516040519687610242565b818652848087019260051b8501019383851161014e57858101925b85841061037d575050505050505090565b83356001600160401b03811161014e57820185603f8201121561014e5787916103ae878387868096013591016102ba565b81520193019261036c565b60005b8381106103cc5750506000910152565b81810151838201526020016103bc565b906020916103f5815180928185528580860191016103b9565b601f01601f1916010190565b906104196020919493946040845260408401906103dc565b6001600160a01b03909416910152565b3461014e57606036600319011261014e576001600160401b0360043581811161014e5761045a9036906004016101a9565b60243583811161014e576104729036906004016102f1565b60443593841161014e5761048d6104a4943690600401610326565b916040519361049b85610227565b60008552611360565b906104b460405192839283610401565b0390f35b81601f8201121561014e578035916020916104d28461030f565b936104e06040519586610242565b808552838086019160051b8301019280841161014e57848301915b84831061050b5750505050505090565b82356001600160401b03811161014e57869161052c848480948901016102f1565b8152019201916104fb565b909291926040808301604084528251809152606084019060608160051b860101926020809501926000915b8684841061057e575050505050509360018060a01b0316910152565b806105ac6001939495969798605f198c820301875285838b51805115158452015191818582015201906103dc565b97019301930191939290610562565b3461014e57604036600319011261014e576001600160401b0360043581811161014e576105ec9036906004016101a9565b60243592831161014e576106076106169336906004016104b8565b90610610611044565b92611218565b906104b460405192839283610537565b604060031982011261014e576001600160401b039160043583811161014e5782610652916004016101a9565b9390939260243591821161014e5761066c916004016101a9565b9091565b92909361068960609396956080865260808601906103dc565b6001600160a01b0396871660208601529186166040850152909416910152565b3461014e576104b46106c66106bd36610626565b92919091611159565b9060409492945194859485610670565b3461014e57600080600319360112610731576106f0611c90565b80546001600160a01b03198116825581906001600160a01b03167f8be0079c531659141344cd1fd0a4f28419497f9722a3daafe3b4186f6b6457e08280a380f35b80fd5b3461014e57606036600319011261014e576001600160401b0360043581811161014e576107659036906004016101a9565b60243583811161014e5761077d9036906004016104b8565b9060443593841161014e57610610610616943690600401610326565b3461014e57600036600319011261014e576040517f00000000000000000000000000000000000000000000000000000000000000006001600160a01b03168152602090f35b3461014e57600036600319011261014e576000546040516001600160a01b039091168152602090f35b3461014e5760a036600319011261014e576001600160401b0360043581811161014e576108389036906004016101a9565b60243583811161014e576108509036906004016102f1565b60443584811161014e57610868903690600401610326565b90606435926108768461013c565b60843595861161014e576108916104a49636906004016102f1565b946113f5565b3461014e5760208060031936011261014e576004356001600160401b03811161014e576108c8903690600401610326565b906108d1611c90565b815190680100000000000000008211610207576001928354838555808410610935575b506001600052602001600080516020612f9f833981519152916000915b84831061091a57005b858282610929839451886114f4565b01940192019192610911565b6000856000528585600080516020612f9f83398151915293840193015b838110610961575050506108f4565b61096b8154610a92565b8061097a575b50018690610952565b601f9083828211600114610995575050508281555b38610971565b6109b6926109a885600052602060002090565b920160051c82019101611498565b6000818152602081208183555561098f565b3461014e57604036600319011261014e576001600160401b0360043581811161014e576109f99036906004016101a9565b60243592831161014e57610a146104a49336906004016102f1565b61048d611044565b602060031982011261014e57600435906001600160401b03821161014e5761066c916004016101a9565b3461014e576060610a616000610a5b36610a1c565b90611f20565b906040519260018060a01b0316835260208301526040820152f35b634e487b7160e01b600052603260045260246000fd5b90600182811c92168015610ac2575b6020831014610aac57565b634e487b7160e01b600052602260045260246000fd5b91607f1691610aa1565b90604051918260008254610adf81610a92565b90818452602094600191600181169081600014610b4d5750600114610b0e575b50505061029092500383610242565b600090815285812095935091905b818310610b355750506102909350820101388080610aff565b85548884018501529485019487945091830191610b1c565b9250505061029094925060ff191682840152151560051b820101388080610aff565b90602061030c9281815201906103dc565b3461014e57602036600319011261014e5760043560015481101561014e57610bbf6104b4916001600052600080516020612f9f83398151915201610acc565b6040519182916020835260208301906103dc565b3461014e57604036600319011261014e576001600160401b0360043581811161014e57610c049036906004016101a9565b919060243591821161014e576104b492610c256106c6933690600401610326565b916115e6565b3461014e57610cad610c77610c6c610ca4610c4536610626565b9692610c559692969591956116de565b63b4a8580160e01b6060820152965b810190611739565b9490968101906117d7565b60c08901919091526040808901929092526001600160a01b0390921660a088019081529094919390929091565b15156080870152565b610cc58451610cc08451809211156118fd565b611316565b9560209360208701978852610cda8451611904565b9160e08801928352600093845b8651811015610e1d57888b8989610d20610d13610d0487846110b8565b51516001600160e01b03191690565b6001600160e01b03191690565b610d5757849350918391610d39600196610d4f956110b8565b510151905190610d4983836110b8565b526110b8565b505b01610ce7565b938992838a610db796948b600199869f610d74610d7a918f6110b8565b51151590565b15610dbd5750505090610db194610d9e610d9886610da395516110b8565b60019052565b6110b8565b51905190610d4983836110b8565b5061195b565b95610d51565b610e119350908183610def89610de8610db19c9a99610de2610d0484610e039a6110b8565b9b6110b8565b51936110b8565b510151915196879485015260248401611936565b03601f198101845283610242565b5190610d4983836110b8565b50610616610e2a8a61261b565b91516001600160a01b031690565b3461014e57610e75610c77610c6c610ca4610e5236610626565b9692610e629692969591956116de565b6370542a0960e11b606082015296610c64565b610e888451610cc08451809211156118fd565b95602093848701978852610e9c8451611904565b9160e08801928352600093845b8651811015610f0a57888b8989610ec6610d13610d0487846110b8565b610ee757849350918391610d39600196610edf956110b8565b505b01610ea9565b938992838a610f0496948b600199869f610d74610d7a918f6110b8565b95610ee1565b5086610f26610f188b61261b565b92516001600160a01b031690565b91805115610f4b57810151610f3a81611d94565b01516104b460405192839283610401565b610a7c565b3461014e576104b46106c6610f6436610a1c565b610c25611044565b6001600160a01b0381160361014e57565b3461014e57602036600319011261014e57600435610f9a81610f6c565b610fa2611c90565b6001600160a01b039081168015610ff057600080546001600160a01b03198116831782559092167f8be0079c531659141344cd1fd0a4f28419497f9722a3daafe3b4186f6b6457e08380a380f35b60405162461bcd60e51b815260206004820152602660248201527f4f776e61626c653a206e6577206f776e657220697320746865207a65726f206160448201526564647265737360d01b6064820152608490fd5b600190600154916110548361030f565b926110626040519485610242565b808452600160009081526020600080516020612f9f8339815191528187015b84841061109057505050505050565b8583819261109d85610acc565b815201920193019290611081565b805115610f4b5760200190565b8051821015610f4b5760209160051b010190565b81601f8201121561014e5780516110e28161029f565b926110f06040519485610242565b8184526020828401011161014e5761030c91602080850191016103b9565b919060408382031261014e5782516001600160401b03811161014e576020916111389185016110cc565b92015161030c81610f6c565b9081602091031261014e575161030c81610f6c565b9161117194939161116993611989565b9490926110ab565b51936111846111808651151590565b1590565b6111f2578051806111a7575050602061119f93940151611b8e565b929391929091565b6020949293506111c48286806111d8946111e4960101910161110e565b959096015160208082518301019101611144565b6001600160a01b031690565b926001600160a01b03169190565b6020850151604051634ae063a960e11b81529081906112149060048301610b6f565b0390fd5b9392919360405161122881610227565b6000815261123683836115c9565b6001600160a01b039092169791905087156112cf57873b156112bd576112b9958261127861126761129b9551611904565b96611270610263565b9836916102ba565b87526020870152604086015263b4a8580160e01b60608601525b15156080850152565b6001600160a01b03861660a084015260c083015260e082015261261b565b9190565b604051634981ac0560e01b8152600490fd5b604051637199966d60e01b8152600490fd5b6040516112ed816101ec565b600181528060005b602080821015611310579060606020928285010152016112f5565b50505090565b906113208261030f565b61132d6040519182610242565b828152809261133e601f199161030f565b019060005b82811061134f57505050565b806060602080938501015201611343565b9091949361136c6112e1565b95865115610f4b576020870152855115610f4b5761138a83836115c9565b6001600160a01b039092169791905087156112cf57873b156112bd576113d995826113bb61126761129b9551611904565b8752602087015260408601526370542a0960e11b6060860152611292565b805115610f4b576020809101516113ef81611d94565b01519190565b91959490926114026112e1565b96875115610f4b576020880152865115610f4b5761142084846115c9565b6001600160a01b0390921698905088156112cf57883b156112bd576113d99661129b93826114656114546112929551611904565b9861145d610263565b9a36916102ba565b8952602089015260408801526001600160e01b0319166060870152565b634e487b7160e01b600052601160045260246000fd5b8181106114a3575050565b60008155600101611498565b9190601f81116114be57505050565b610290926000526020600020906020601f840160051c830193106114ea575b601f0160051c0190611498565b90915081906114dd565b91909182516001600160401b0381116102075761151b816115158454610a92565b846114af565b602080601f831160011461155e5750819061154f939495600092611553575b50508160011b916000199060031b1c19161790565b9055565b01519050388061153a565b90601f1983169561157485600052602060002090565b926000905b8882106115b157505083600195969710611598575b505050811b019055565b015160001960f88460031b161c1916905538808061158e565b80600185968294968601518155019501930190611579565b6115d591600091611f20565b6001600160a01b0390921692909190565b9190916115fe60006115f93686856102ba565b612154565b926040519363691f343160e01b60208601526024850152602484526116228461020c565b6040519161162f83610227565b6000835261163b6112e1565b94855115610f4b576020860152845115610f4b5761165982826115c9565b6001600160a01b0390921696919491905086156112cf57863b156112bd576116bd948161169d61168c61129b9451611904565b95611695610263565b9736916102ba565b8652602086015260408501879052636dc4fb7360e01b6060860152611292565b91825115610f4b5760208061119f9401516116d781611d94565b0151611b8e565b6040519061010082018281106001600160401b03821117610207576040528160e060609182815282602082015282604082015260008382015260006080820152600060a08201528260c08201520152565b8015150361014e57565b91909160408184031261014e576001600160401b0392813584811161014e5782019381601f8601121561014e5760209480356117748161030f565b916117826040519384610242565b818352878084019260051b8201019185831161014e5788809201905b8382106117be57505050509483013590811161014e5761030c92016104b8565b82809183356117cc8161172f565b81520191019061179e565b919060a08382031261014e5782356117ee8161172f565b92602092838201356117ff81610f6c565b936001600160401b039060408481013583811161014e5786611822918701610326565b95606086013584811161014e578161183b9188016102f1565b9560808101359085821161014e57019181601f8401121561014e578235906118628261030f565b956118706040519788610242565b828752858088019360051b8601019484861161014e57868101935b86851061189d57505050505050505090565b843583811161014e5782019084601f19838903011261014e578451906118c2826101ec565b898301356118cf8161013c565b8252858301359185831161014e576118ee898c809695819601016102f1565b8382015281520194019361188b565b1561014e57565b9061190e8261030f565b61191b6040519182610242565b828152809261192c601f199161030f565b0190602036910137565b909161194d61030c936040845260408401906103dc565b9160208184039101526103dc565b906001820180921161196957565b611482565b906002820180921161196957565b9190820180921161196957565b6119ae6119b99194929461199b6116de565b636dc4fb7360e01b606082015295610c64565b9390928101906117d7565b60c0880191825260408089019384526001600160a01b0390941660a089019081529298919590949193916119f090151560808a0152565b611a038751610cc08751809211156118fd565b9860209660208a019a8b52611a188751611904565b9460e08b01958652600096875b8951811015611a85578d8b8b8e611a42610d13610d0487856110b8565b611a625750928092611a5a92610d39836001976110b8565b505b01611a25565b9093611a7f938d8d839f958e6001998f610d7486610d7a926110b8565b98611a5c565b509850985098935098505050611aa09250610f18915061261b565b935192519193929190565b9060208282031261014e5781516001600160401b03811161014e5761030c92016110cc565b90808251908181526020809101926020808460051b8301019501936000915b848310611aff5750505050505090565b9091929394958480611b1d600193601f198682030187528a516103dc565b9801930193019194939290611aef565b92611b5961030c9593611b4b611b679460a0885260a08801906103dc565b9086820360208801526103dc565b908482036040860152611ad0565b91636dc4fb7360e01b606082015260808184039101526103dc565b6040513d6000823e3d90fd5b909192611ba682519260208080958301019101611aab565b936000611be0611c11611c2c87611bbc8a6128d4565b604051631d9dabef60e11b8b82015260248101919091529490939085906044820190565b03611bf3601f1991828101885287610242565b8b611c056040519485928d8401610401565b03908101835282610242565b604051638e25a0f360e01b8152958694859460048601611b2d565b0381305afa928315611c8b576000918294611c5d575b5081816111d892611c5894518301019101611144565b929190565b6111d8919450611c8290611c58933d8091833e611c7a8183610242565b81019061110e565b94915091611c42565b611b82565b6000546001600160a01b03163303611ca457565b606460405162461bcd60e51b815260206004820152602060248201527f4f776e61626c653a2063616c6c6572206973206e6f7420746865206f776e65726044820152fd5b906020825192015163ffffffff60e01b908181169360048110611d0a57505050565b60040360031b82901b16169150565b6020808201908083528351809252604092604081018260408560051b8401019601946000925b858410611d50575050505050505090565b909192939495968580611d83600193603f1986820301885286838d5161ffff8151168452015191818582015201906103dc565b990194019401929594939190611d3f565b805115611d9e5750565b6020908101805163ca7a4e7560e01b90816001600160e01b0319611dc183611ce8565b1614611de6578251604051634ae063a960e11b81529081906112149060048301610b6f565b809192505181019280840193604092838183031261014e57611e0a8382015161013c565b838101516001600160401b039182821161014e57019186603f8401121561014e578383015190611e398261030f565b97611e468751998a610242565b82895286868a019360051b8601019481861161014e57878101935b868510611e7b5788518a8152806112148d60048301611d19565b845186811161014e5782019089601f19838703011261014e57895190611ea0826101ec565b8a83015161ffff8116810361014e57825260608301519188831161014e57611ecf868d8d9695879601016110cc565b83820152815201940193611e61565b90821015610f4b570190565b60001981019190821161196957565b60031981019190821161196957565b9093929384831161014e57841161014e578101920390565b919290611f51611f4b611f45611f37878588611ede565b356001600160f81b03191690565b60f81c90565b60ff1690565b9081156120fc5790611fba916042611f71611f6c848961197c565b61195b565b9214806120d7575b806120ab575b1561208757611fb3611fae611fa7611f968961196e565b611f9f86611eea565b90858a611f08565b36916102ba565b612a4a565b5094611f20565b60408051602081019384529081019590955293611fe481606081015b03601f198101835282610242565b519020604051630178b8bf60e01b8152600481018290529094906001600160a01b036020826024817f000000000000000000000000000000000000000000000000000000000000000085165afa918215611c8b57600092612056575b50811661204e575050929190565b949350919050565b61207991925060203d602011612080575b6120718183610242565b810190611144565b9038612040565b503d612067565b61209e611fa7836120978961195b565b8489611f08565b6020815191012094611f20565b50605d60f81b6001600160f81b03196120d0611f376120c986611eea565b858a611ede565b1614611f7f565b50605b60f81b6001600160f81b03196120f5611f376120c98a61195b565b1614611f79565b50600093849350919050565b1561210f57565b60405162461bcd60e51b815260206004820152601d60248201527f6e616d65686173683a204a756e6b20617420656e64206f66206e616d650000006044820152606490fd5b9081518110156122085761217f611f4b6001600160f81b031961217784866128c3565b511660f81c90565b9081156121fa576121a7611f6c61219f846121998561195b565b87612ddf565b935b8361197c565b9082156121df57506121b99192612154565b604080516020810192835290810192909252906121d98160608101611fd6565b51902090565b9150506121ef6121f59251611eea565b14612108565b600090565b6121a7611f6c6000936121a1565b60405162461bcd60e51b815260206004820152601e60248201527f726561644c6162656c3a20496e646578206f7574206f6620626f756e647300006044820152606490fd5b906122578261030f565b6040906122676040519182610242565b8381528093612278601f199161030f565b019160009160005b84811061228e575050505050565b602090835161229c8161020c565b85815260608390808284015286830152828501015201612280565b604051906122c4826101ec565b6060602083600081520152565b906122db8261030f565b6122e86040519182610242565b82815280926122f9601f199161030f565b019060005b82811061230a57505050565b6020906123156122b7565b828285010152016122fe565b81601f8201121561014e5780519160209161233b8461030f565b936123496040519586610242565b808552838086019160051b8301019280841161014e57848301915b8483106123745750505050505090565b82516001600160401b03811161014e578691612395848480948901016110cc565b815201920191612364565b9060208282031261014e5781516001600160401b039283821161014e57019060608282031261014e57604051926123d68461020c565b82516123e181610f6c565b8452602083015181811161014e57826123fb918501612321565b6020850152604083015190811161014e5761241692016110cc565b604082015290565b9190606081019060018060a01b038451168152602080850151926060602084015283518091526080830191602060808360051b8601019501926000905b83821061247e575050505050604061030c939401519060408184039101526103dc565b9091929395838061249b600193607f198a82030186528a516103dc565b9801920192019093929161245b565b6020808201906020835283518092526040830192602060408460051b8301019501936000915b8483106124e05750505050505090565b90919293949584806124fe600193603f198682030187528a5161241e565b98019301930191949392906124d0565b929361254c911515845260209260018060a01b03168385015261253e60409560a0604087015260a0860190611ad0565b9084820360608601526103dc565b91608081840391015283519182815281810182808560051b8401019601946000925b85841061257f575050505050505090565b9091929394959685806125b7600193601f1986820301885286838d5163ffffffff60e01b8151168452015191818582015201906103dc565b99019401940192959493919061256e565b91926125f161030c96946125ff9360018060a01b0316855260a0602086015260a0850190611ad0565b9083820360408501526103dc565b9263ffffffff60e01b16606082015260808184039101526103dc565b60208082018051519293600090816126328661224d565b9561263c816122d1565b94612646826122d1565b926126508a612ad3565b9060005b848110612723575050505050821561271a5761269c8661121489886127008989865260408401926126f4845197604051998a916353c05d5b60e11b85840152602483016124aa565b03926126b0601f19948581018c528b610242565b60608701516001600160e01b031916956126cd6080890151151590565b60a089015190989060c0906001600160a01b0316925191015191604051998a96870161250e565b03908101845283610242565b604051630556f18360e41b815294859430600487016125c8565b95509350505050565b898b8d856127328589516110b8565b5191612745610d748760e08401516110b8565b6128675761277261278a93928260a0612785945191019461276c865160018060a01b031690565b91612b46565b92519092916001600160a01b0390911690565b612c69565b949193849361281e57505090838093926001969591612811575b506127f8575b506127bd6127b6610283565b9215158352565b8c8201526127cb82896110b8565b526127d681886110b8565b506127e28186516110b8565b518b6127ee838d6110b8565b5101525b01612654565b61280b91508d8082518301019101611aab565b386127aa565b880151151590508e6127a4565b61286195508d9450612841846001989f9395948061284b965183010191016123a0565b610d4983836110b8565b506128568b8d6110b8565b52610db18a8c6110b8565b976127f2565b505090506001929150612878610283565b908482528c82015261288a82896110b8565b5261289581886110b8565b506127f2565b906128a58261029f565b6128b26040519182610242565b828152809261192c601f199161029f565b908151811015610f4b570160200190565b6000908051926128eb6128e68561196e565b61289b565b8385156129f857600019958601945b601760f91b61292a61291d61290f89896128c3565b516001600160f81b03191690565b6001600160f81b03191690565b036129cc5761297b61295f611fd69260ff60018a01918160f81b8160f81b1660001a612956848a6128c3565b53169088612ddf565b6040519283916020830195869091604092825260208201520190565b5190206000945b8015612990578601946128fa565b5091939450916129aa61295f611fd69260ff881690612dd0565b5190209260f81b6001600160f81b03191660001a6129c7826110ab565b539190565b9460ff600180970116956129f26129e661290f84896128c3565b60001a918301856128c3565b53612982565b509150918093506129c7826110ab565b603a8110602f821116612a4357604781106040821116612a3c57606781106060821116612a35575060ff90565b6056190190565b6036190190565b602f190190565b600091600060019280519060409160401161014e5791906000925b818410612a73575b50505050565b90919295868201612a986021612a8e6020840151881a612a08565b920151861a612a08565b9060ff80831490821417612abe57906002929160041b179060081b179601929190612a65565b50509550505050905060009038808080612a6d565b60006020604051612ae3816101ec565b828152015280515115906080612b0460018060a01b0360a084015116612df9565b910151151580612b3e575b612b2c5760405191612b20836101ec565b82521515602082015290565b60405163105858e560e31b8152600490fd5b508015612b0f565b909392805115612b595750505060019190565b60200151612b7557506112b990612b6f84611ce8565b90612e7c565b612b999150610e03604051948592639061b92360e01b602085015260248401611936565b60019190565b6020610290919392936040519481612bc087935180928680870191016103b9565b8201612bd4825180938680850191016103b9565b01038085520183610242565b9060a08282031261014e578151612bf681610f6c565b926020830151906001600160401b039182811161014e5783612c19918601612321565b93604081015183811161014e5784612c329183016110cc565b936060820151612c418161013c565b93608083015190811161014e5761030c92016110cc565b90602061030c92818152019061241e565b60009360609392612c786122b7565b9315612dc057612c8a905a9084612f3b565b915b3d83612da5576004811015612c9f575050565b612cb8612cb3612cad612f67565b92611ef9565b612f8a565b90630556f18360e41b6001600160e01b0319612cd383611ce8565b1603612d89575080602080612ced93518301019101612be0565b909490936001600160a01b039081169391168314612d0c575050505050565b91939750919450612d519750612d5f939550612d38612d29610292565b6001600160a01b039094168452565b6020830152604082015260405195869160208301612c58565b03601f198101865285610242565b612d7a612d6a610283565b6001600160e01b03199094168452565b60208301526001929190600090565b929650925050612d9a929350612b9f565b916000929190600090565b9250509350612db5919250612f53565b916000929190600190565b612dca9083612ec4565b91612c8c565b8051821161014e576020012090565b908281018082116119695782511061014e57016020012090565b6040516301ffc9a760e01b8152639061b92360e01b600482015290602090829060249082906001600160a01b031661c350fa60009181612e3f575b5061030c5750600090565b9091506020813d602011612e74575b81612e5b60209383610242565b8101031261014e5751612e6d8161172f565b9038612e34565b3d9150612e4e565b6040516301ffc9a760e01b81526001600160e01b03199092166004830152602090829060249082906001600160a01b031661c350fa60009181612e3f575061030c5750600090565b803b15612edf578160009291602084935192019061c350fa90565b60405162461bcd60e51b815260206004820152602e60248201527f4c6f774c6576656c43616c6c5574696c733a207374617469632063616c6c207460448201526d1bc81b9bdb8b58dbdb9d1c9858dd60921b6064820152608490fd5b90813b15612edf57600092839260208351930191fa90565b90612f5d8261289b565b916000602084013e565b60405190612f74826101ec565b600482526004600060208401936020368637933e565b90612f948261289b565b916004602084013e56feb10e2d527612073b26eecdfd717e6a320cf44b4afac2b0732d9fcbe2b7fa0cf6a264697066735822122076819c9dd211977a22aec2b31d0d36d6a251afe183ee0732c8a5e778c903c90864736f6c63430008180033","linkReferences":{}},"methodIdentifiers":{"_resolveSingle(bytes,bytes,string[],bytes4,bytes)":"8e25a0f3","batchGatewayURLs(uint256)":"a6b16419","findResolver(bytes)":"a1cbcbaf","owner()":"8da5cb5b","registry()":"7b103999","renounceOwnership()":"715018a6","resolve(bytes,bytes)":"9061b923","resolve(bytes,bytes,string[])":"0667cfea","resolve(bytes,bytes[])":"206c74c9","resolve(bytes,bytes[],string[])":"76286c00","resolveCallback(bytes,bytes)":"b4a85801","resolveSingleCallback(bytes,bytes)":"e0a85412","reverse(bytes)":"ec11c823","reverse(bytes,string[])":"b241d0d3","reverseCallback(bytes,bytes)":"6dc4fb73","setGatewayURLs(string[])":"8e5ea8df","supportsInterface(bytes4)":"01ffc9a7","transferOwnership(address)":"f2fde38b"},"id":67}